:020000040800F2
:1000000000000624E577000899740008A174000830
:10001000A9740008B1740008B97400080000000059
:10002000000000000000000000000000C174000893
:10003000CF74000800000000DD740008EB740008B5
:1000400035780008357800083578000835780008DC
:1000500035780008357800083578000835780008CC
:1000600035780008357800083578000835780008BC
:1000700035780008357800083578000835780008AC
:10008000357800083578000835780008F9740008DC
:10009000357800080D7500083578000835780008B7
:1000A000357800083578000835780008357800087C
:1000B000357800083578000835780008357800086C
:1000C000357800083578000835780008357800085C
:1000D000357800083578000835780008357800084C
:1000E00035780008357800080000000035780008F1
:1000F0003578000821750008357800083578000843
:10010000357800083578000835780008357800081B
:10011000357800083578000835780008357800080B
:1001200035780008357800083578000835780008FB
:1001300035780008357800083578000835780008EB
:1001400000000000000000000000000000000000AF
:1001500035780008357800083578000835780008CB
:1001600035780008357800083578000835780008BB
:100170003578000835780008357800080000000060
:10018000357800083578000835780008357800089B
:10019000357800083578000835780008357800088B
:1001A00000000000000000003578000835780008E5
:1001B000357800083578000835780008357800086B
:1001C000357800083578000835780008357800085B
:1001D000357800083575000835780008357800084E
:1001E000357800083578000835780008357800083B
:1001F000357800083578000835780008357800082B
:10020000357800083578000835780008357800081A
:10021000357800083578000835780008357800080A
:100220003578000800000000357800080000000064
:10023000357800083578000800000000357800089F
:1002400035780008357800083578000835780008DA
:1002500035780008357800083578000835780008CA
:1002600035780008357800083578000835780008BA
:10027000357800083578000835780008000000005F
:10028000357800083578000835780008000000004F
:080290000000000035780008B1
:1002A00010B5054C237833B9044B13B10448AFF3B0
:1002B00000800123237010BD2C05002400000000E5
:1002C000DC2D010808B5034B1BB103490348AFF30C
:1002D000008008BD0000000030050024DC2D01086E
:1002E00010F8012B11F8013B012A28BF9A42F7D0E0
:1002F000D01A7047034613F8012B002AFBD1181AB5
:1003000001387047000000000000000000000000FD
:1003100001F0FF01102A2BDB10F0070F08D010F8B6
:10032000013B013A8B422DD010F0070F42B3F6D1BA
:10033000F0B441EA012141EA014122F007047FF0D3
:1003400000070023F0E80256083C85EA010586EA2A
:10035000010685FA47F5A3FA87F586FA47F6A5FA66
:1003600087F68EB9EED1F0BC01F0FF0102F0070272
:1003700032B110F8013B013A83EA010313B1F8D11D
:100380000020704701387047002D06BF35460338FE
:10039000073815F0010F07D1013015F4807F02BF37
:1003A000013015F4C03F0130F0BC0138704700BF88
:1003B00080B584B000AFF860B9607A603B60FB68DC
:1003C000BA689A60FB687A68DA60FB683A685A60D3
:1003D000FB6824221A70FB684FF47A725A80F8681E
:1003E00005F086FF00BF1037BD4680BD80B582B0E6
:1003F00000AF7860786800F09DFB012201217868E9
:1004000000F07CFD0121786800F0F0F900BF0837AA
:10041000BD4680BD80B582B000AF78600B46FB70F2
:10042000FB78012B05D8FB7819460D4800F06AF8D7
:1004300013E0FB78022B05D9FB781946094800F038
:1004400061F80AE0FB78022B07D17B6804331B6854
:100450001946054800F056F800BF0837BD4680BD74
:10046000F42D0108142E0108302E010880B584B047
:1004700000AF786007F108030A221946786811F086
:1004800003FB0346FB60BB681B78002B02D04FF0D8
:10049000FF3300E0FB6818461037BD4680BD000002
:1004A00080B582B000AF78600B46FB707B68043388
:1004B0001B681846FFF7DAFF0346DAB2104B1A70D2
:1004C0007B6808331B681846FFF7D0FF03460C4AC9
:1004D00053607B680C331B681846FFF7C7FF034661
:1004E000DAB2074B1A727B6810331B681846FFF7A5
:1004F000BDFF0346024AD36000BF0837BD4680BD3A
:10050000480500240FB480B59CB000AF012387F8E4
:100510006F3007F17C033B603B1D3A68B96F1846AA
:1005200011F008FD07F00EFAB8663B1D1846FFF7FC
:10053000E1FE03469AB23B1D1146184610F0CCFC72
:1005400000BF7037BD46BDE8804004B0704780B53D
:100550008CB004AF7860084611461A460346FB701B
:100560000B463B801346BB700023FB61FB7803F511
:10057000C0631946FB7803F5B0631A46FB787868C8
:1005800003F0C8FB0346FB7697F91B30002B02D023
:100590004FF0FF3341E0BA783988002301934FF4DC
:1005A0007A730093FB6A786803F028FC0346FB76B5
:1005B00097F91B30002B02D04FF0FF332DE0FA6A81
:1005C000B96A786803F057FC78617A69FB6A9A42E5
:1005D00001D20123FB6142F210733B610023FB60F7
:1005E000002302930023019307F10C030093FB699E
:1005F00000223969786803F05BFC0346FB7697F9C3
:100600001B30002B01DAFB6807E0012007F0A6F998
:1006100097F91B30002BDEDC002318462037BD463F
:1006200080BD000080B584B002AF78600B46FB70DF
:100630000E4B00221A700D4B00225A700B4B0022F9
:100640009A700A4B0022DA707B685B69986AF978C5
:1006500002230193054B0093002346F24002FFF76B
:1006600076FF00BF0837BD4680BD00BF5805002497
:1006700080B584B002AF78600B46FB700E4B06224B
:100680001A700D4B00225A700B4B00229A700A4BC5
:100690000022DA707B685B69986AF978022301931B
:1006A000054B0093002346F24002FFF750FF00BFC6
:1006B0000837BD4680BD00BF5805002480B584B012
:1006C00002AF78600B46FB700E4B07221A700D4B81
:1006D00000225A700B4B00229A700A4B0022DA70EB
:1006E0007B685B69986AF97802230193054B009354
:1006F000002346F24002FFF72AFF00BF0837BD463D
:1007000080BD00BF5805002480B584B002AF78607A
:100710000B46FB700E4B0F221A700D4B00225A70C5
:100720000B4B00229A700A4B0022DA707B685B69DF
:10073000986AF97802230193054B0093002346F24F
:100740004002FFF704FF00BF0837BD4680BD00BF71
:100750005805002480B584B002AF78600B46FB706A
:100760000E4B4F221A700D4B00225A700B4B002279
:100770009A700A4B0022DA707B685B69986AF97894
:1007800002230193054B0093002346F24002FFF73A
:10079000DEFE00BF0837BD4680BD00BF58050024FF
:1007A00080B584B002AF78600B46FB700E4B5F22C1
:1007B0001A700D4B00225A700B4B00229A700A4B94
:1007C0000022DA707B685B69986AF97802230193EA
:1007D000054B0093002346F24002FFF7B8FE00BF2E
:1007E0000837BD4680BD00BF5805002480B582B0E3
:1007F00000AF78600B46FB70FB7819467868FFF70E
:1008000011FFFB7819467868FFF732FFFB7819462D
:100810007868FFF753FFFB7819467868FFF774FF95
:1008200000BF0837BD4680BD80B584B002AF786098
:100830000B46FB701346BB70104B00221A700F4B17
:1008400000225A700D4B00229A700C4B8022DA70F5
:100850007B685B69986ABB789AB241F2FF331344B4
:100860009AB2F97804230193044B00930123FFF714
:100870006EFE00BF0837BD4680BD00BF580500248E
:1008800080B586B002AF78600B46FB701346BB7034
:10089000BB7801331A02FB781344FB60FB68DAB2C1
:1008A000104B1A70FB681B0ADAB20E4B5A700D4BD4
:1008B00000229A700B4B8022DA707B685B69986A21
:1008C000BB789AB241F2FF3313449AB2F978042309
:1008D0000193044B00930123FFF739FE00BF10374B
:1008E000BD4680BD5805002480B584B002AF786055
:1008F0000B46FB701346BB70104B00221A700F4B57
:1009000000225A700D4B00229A700C4B0022DA70B4
:100910007B685B69986ABB789AB241F2FF331344F3
:100920009AB2F97802230193044B00930223FFF754
:100930000EFE00BF0837BD4680BD00BF580500242D
:1009400080B584B002AF78600B46FB701346BB7075
:10095000104B00221A700F4B00225A700D4B0022D0
:100960009A700C4B0022DA707B685B69986ABB78DE
:100970009AB241F2FF5313449AB2F97802230193D9
:10098000044B00930023FFF7E2FD00BF0837BD468C
:1009900080BD00BF5805002490B587B002AFF86055
:1009A0007B600B46FB721346BB727B68DAB2134B5B
:1009B0001A707B681B0ADAB2104B5A707B681B0CEA
:1009C000DAB20E4B9A707B681B0EDAB20B4BDA7000
:1009D000FB685B69986ABB7A9AB241F2FF53134491
:1009E0009AB297F82030F97A04240194034C0094C9
:1009F000FFF7ADFD00BF1437BD4690BD580500247C
:100A000080B584B002AF78600B46FB701346BB70B4
:100A1000104B01221A700F4B00225A700D4B00220E
:100A20009A700C4B0022DA707B685B69986ABB781D
:100A30009AB241F2FF5313449AB2F9780223019318
:100A4000044B00930023FFF782FD00BF0837BD462B
:100A500080BD00BF5805002480B586B002AF786025
:100A60000B46FB701346BB70BB7801331A02FB7850
:100A70001344FB60FB68DAB2104B1A70FB681B0A68
:100A8000DAB20E4B5A700D4B00229A700B4B0022BB
:100A9000DA707B685B69986ABB789AB241F2FF337F
:100AA00013449AB2F97804230193044B0093012371
:100AB000FFF74DFD00BF1037BD4680BD580500242F
:100AC00080B586B002AFF8607B600B46FB721346C0
:100AD000BB72BA7AFB7A1946F868FFF7A5FEBA7AB4
:100AE000FB7A1946F868FFF7CBFEBA7AFB7A19460B
:100AF000F868FFF7F9FEBA7AFB7A1946F868FFF74B
:100B00001FFFBA7AF97A3B7E00937B68F868FFF79B
:100B100043FFBA7AFB7A1946F868FFF771FFBA7A91
:100B2000FB7A1946F868FFF797FF00BF1037BD46FC
:100B300080BD000080B584B002AF78607B685B69DF
:100B40001B6901228121184601F026F94FF47A70C1
:100B500006F004FF7B685B691B690122802118464F
:100B600001F01AF9322006F0F9FE012300931A4B26
:100B7000012201217868FFF7A3FF01230093174B9F
:100B8000022201217868FFF79BFF01230093144B99
:100B9000032201217868FFF793FF01230093114B93
:100BA000042201217868FFF78BFF012300930E4B8D
:100BB000052201217868FFF783FF7B685B691B6969
:100BC00001220121184601F0E7F8322006F0C6FEA6
:100BD00000BF0837BD4680BD1000406020007A602D
:100BE00020008160100083601000846080B586B0B2
:100BF00002AFF8600B467A60FB727B68DAB2114B89
:100C00001A707B681B12DAB20E4B5A707B681B1489
:100C1000DAB20C4B9A707B681B0EDAB2094BDA70B1
:100C2000FB685B69986AF97A04230193054B00938A
:100C3000002346F27A02FFF78AFC00BF1037BD4658
:100C400080BD00BF5805002480B586B002AFF860B3
:100C50000B467A60FB727B68DAB2114B1A707B68C4
:100C60001B0ADAB20E4B5A707B681B0CDAB20C4BC3
:100C70009A707B681B0EDAB2094BDA70FB685B690D
:100C8000986AF97A04230193054B0093002346F2F6
:100C90008102FFF75CFC00BF1037BD4680BD00BF7E
:100CA0005805002480B584B002AF78600B46FB7015
:100CB00013463B803B88DAB20C4B1A70B7F9003010
:100CC0001B121BB2DAB2094B5A707B685B69986AD7
:100CD000F97802230193054B0093002346F2FF02AB
:100CE000FFF735FC00BF0837BD4680BD580500241E
:100CF00080B586B002AFF8600B467A60FB727B6805
:100D0000DAB2114B1A707B681B0ADAB20E4B5A70BA
:100D10007B681B0CDAB20C4B9A707B681B0EDAB244
:100D2000094BDA70FB685B69986AF97A04230193CE
:100D3000054B0093012346F29302FFF708FC00BF26
:100D40001037BD4680BD00BF5805002480B586B071
:100D500002AFF8600B467A60FB727B68DAB2114B27
:100D60001A707B681B0ADAB20E4B5A707B681B0C38
:100D7000DAB20C4B9A707B681B0EDAB2094BDA7050
:100D8000FB685B69986AF97A04230193054B009329
:100D9000022346F29302FFF7DAFB00BF1037BD468D
:100DA00080BD00BF5805002480B586B002AFF86052
:100DB0000B467A60FB727B68DAB2114B1A707B6863
:100DC0001B0ADAB20E4B5A707B681B0CDAB20C4B62
:100DD0009A707B681B0EDAB2094BDA70FB685B69AC
:100DE000986AF97A04230193054B0093002346F295
:100DF0008302FFF7ACFB00BF1037BD4680BD00BFCC
:100E00005805002480B586B002AFF8600B467A60C2
:100E1000FB727B68DAB2114B1A707B681B0ADAB27C
:100E20000E4B5A707B681B0CDAB20C4B9A707B68C5
:100E30001B0EDAB2094BDA70FB685B69986AF97AC3
:100E400004230193054B0093002346F28402FFF72D
:100E50007EFB00BF1037BD4680BD00BF5805002493
:100E600080B582B000AF78600B46FB70FB784CF227
:100E7000503219467868FFF7E7FEFB7800221946E2
:100E80007868FFF70FFFFB7846F2A81219467868DA
:100E9000FFF78AFFFB7843F2D40219467868FFF720
:100EA000B1FF00BF0837BD4680BD000080B584B0EB
:100EB00002AF78600B46FB701346BB700E4ABB78DE
:100EC00013700D4B00225A700B4B00229A700A4B84
:100ED0000022DA707B685B69986AF97801230193D4
:100EE000054B0093002346F26002FFF730FBBB780E
:100EF00018460837BD4680BD5805002480B582B02D
:100F000000AF78600B46FB701346BB70BA78FB7875
:100F100019467868FFF7CAFFBB78042B0CD0042B66
:100F20000CDC012B02D0032B0AD007E0FB7819461A
:100F30007868FFF795FF04E000BF02E000BF00E023
:100F400000BF00BF0837BD4680BD80B483B000AF8E
:100F500078600B46FB7000BF0C37BD465DF8047B24
:100F60007047000080B483B000AF0346FB80064B9F
:100F700001221A70FB88044A536000BF0C37BD463B
:100F80005DF8047B704700BF5C05002480B483B02B
:100F900000AF0346FB800A4B02221A70FB88084A06
:100FA0005360074B00225A73054B01229A73044B7E
:100FB00001221A7300BF0C37BD465DF8047B7047F1
:100FC0005C05002480B584B000AF78600D4BFB60F9
:100FD0000EE0FB681B6879681846FFF781F9034645
:100FE000002B02D1FB685B6807E0FB680833FB60FD
:100FF000FB685B68002BECD1002318461037BD4618
:1010000080BD00BFA031010880B590B000AF78600E
:101010000B46FB70002387F83F301949786811F0C0
:1010200049F8B8630FE097F83F305A1C87F83F2023
:101030009B0040333B44BA6B43F8382C10490020E6
:1010400011F038F8B863BB6B002BECD10D4B7B6310
:10105000BB681846FFF7B6FF38633B6B002B08D020
:101060003B6B1B6897F83F1007F108021046984742
:1010700002E00548FFF746FA00BF4037BD4680BD95
:101080003C2E0108A0310108402E010880B584B033
:1010900000AF78600B46FB707B6804331B68184612
:1010A00010F09AFB0346FB73FB7B012B0ED17B6890
:1010B00008331B68184610F08FFB0346BB81BB89C1
:1010C0001846FFF74FFF0C48FFF71CFAFB7B022B7B
:1010D0000ED17B6808331B68184610F07DFB034671
:1010E0007B817B891846FFF751FF0448FFF70AFA16
:1010F00000BF1037BD4680BD182F0108202F010802
:1011000080B485B000AF78607B681B78FB73FB7B95
:1011100018461437BD465DF8047B704780B483B031
:1011200000AF78600B46FB70FA787B681A70012379
:1011300018460C37BD465DF8047B704780B483B019
:1011400000AF786039603A687B681A6004231846FB
:101150000C37BD465DF8047B704780B483B000AFA8
:1011600078607B68002B02D07B681B8800E000233E
:1011700018460C37BD465DF8047B704780B483B0D9
:1011800000AF786039607B68002B01D1052303E054
:101190007B683A689A60002318460C37BD465DF8B4
:1011A000047B704780B586B002AFF8607A603B6020
:1011B0000B46FB72F97A3B68009304237A68F8685F
:1011C00001F03CF8034618461037BD4680BD80B597
:1011D00086B000AFF860B9607A603B60FB68002BB6
:1011E0000CD0FB685B7C002B08D1BB68002B05D0C2
:1011F0007B68032B02D93B68002B01D109231BE03C
:10120000FB685B687B617B695B6A002B01D0002314
:1012100001E04FF000433B617B6993F82830803355
:101220001A463B6913433B613969B868FFF786FF8B
:101230003B6804221A60002318461837BD4680BD5B
:1012400080B586B000AFF860B9607A603B60FB683B
:10125000002B0FD0BB68002B0CD03B68002B09D0B3
:101260007B68032B03D8FB685B7C002B02D17B6877
:10127000002B01D109234CE0FB685B683B613B69B3
:101280001B7F012B01D8092343E0FB685B7C002B0B
:101290000BD13B6993F820301946B868FFF73EFF41
:1012A0003B6801221A60002333E0FB685A7C3B69EB
:1012B00093F820309A422BD83B695B7F1A46FB6833
:1012C0005B7CD31A9BB2FB82B7F91630002B07DA8E
:1012D0003B691B7F1A46FB8A13449BB2FB8207E0E3
:1012E000B7F916303A69127F934201DB092310E007
:1012F0003B699A69B7F91630DB0013441B6819463D
:10130000B868FFF71BFF3B6804221A60002300E067
:10131000192318461837BD4680BD80B586B000AF8A
:10132000F860B9607A603B60FB68002B0CD0FB680A
:101330005B7C002B08D1BB68002B05D07B68012BA0
:1013400002D13B68002B01D1092312E0B868FFF7F6
:10135000D7FE0346002B01D00F230AE0FB685B6831
:101360007B617B69002283F820203B6801221A60A0
:10137000002318461837BD4680BD000080B588B0F0
:1013800002AFF860B9607A603B600023FB75FB68D0
:10139000002B1AD07B68002B17D03B68002B03D1A1
:1013A00097F82030012B10D87B6A002B0DD0BB683A
:1013B000002B0AD097F83030002B06D097F9303048
:1013C000002B02DBFB6A002B02D14FF0FF33A7E0BA
:1013D00050220021F86810F065FEFB68BA685A6177
:1013E000002301220021786800F08FFF0246FB688D
:1013F000DA60FB68DB68002B0CD17B6B002B06D01E
:101400007868FFF7AAFE03461A467B6B1A606FF0F6
:101410000B0385E0FB68DB6800221A70FB683A6802
:101420009A61FB6897F820201A7707F110020123D0
:101430000021786AFFF7B6FE0346BB7597F91630B0
:10144000002B04D13A69384B1340002B10D07B6B32
:10145000002B06D0786AFFF780FE03461A467B6BA6
:101460001A6097F91630002B02D06FF00B0357E08B
:1014700097F830309BB28033BB823B69DB43DB0F94
:10148000DBB21A46FB685A62FB68FA681A63FB68AB
:10149000264A5A63FB68264A9A63FB68303319462A
:1014A000786AFFF76BFE0346BB7597F91630002B81
:1014B0000CD07B6B002B06D0786AFFF74EFE0346FC
:1014C0001A467B6B1A606FF00B0329E0FB6897F8F4
:1014D000302083F82820BA8A398D0023019308230D
:1014E00000930023B86805F0FBF90246FB68DA6256
:1014F000FB68DB6A002B02D14FF0FF3310E0FB6882
:10150000FA681A64FB680B4A5A64FB680A4A9A64D0
:10151000FB6840331946F86AFFF730FE97F9173039
:1015200018461837BD4680BD00F8FF7FCF11000870
:10153000AD1E0008411200081B13000880B48DB0D6
:1015400000AFF860B96011461A460B46FB711346AE
:10155000BB80FB68002B00F0A680FB79DB0887F8D6
:101560002F30FB7903F00703012202FA03F387F817
:101570002E3097F82F30092B0AD9052387F82F3002
:10158000012387F82E304FF4C243BB80FB79BB6345
:1015900097F82F30FA681344BB62BB6A1A7897F841
:1015A0002E30134087F82730BB68002B04D097F803
:1015B0002730002B06D079E097F82730002B74D025
:1015C0000023BB80FB791A06BB8813433B62BB6BCD
:1015D000FB61FB685B69EFF310827A617A691A63D9
:1015E00072B600BFBB68002B08D0BB6A1A7897F8A8
:1015F0002E301343DAB2BB6A1A700BE0BB6A1B7859
:101600005AB297F92E30DB435BB213405BB2DAB2C9
:10161000BB6A1A70FB681B7F012B3CD9FB685B7FA0
:10162000FB76FB7E013387F82D30FB681B7F97F834
:101630002D209A4202D3002387F82D30FB689B7F30
:1016400097F82D209A4203D1FB680122DA7722E035
:10165000FB689A69FB7EDB0013443A6A1A60FB68F8
:101660009A69FB7EDB001344FA695A60FB6897F8BD
:101670002D205A77FB6893F820301A46FB681B7FB1
:10168000013B9A4207DAFB6893F820300133DAB263
:10169000FB6883F82020FB685B691B6B3B613B693F
:1016A00083F3108802E000BF00E000BF3437BD467E
:1016B0005DF8047B704780B485B000AF78607B68CC
:1016C0001B68FB60FB6818461437BD465DF8047B59
:1016D000704780B483B000AF78607B68002B02D085
:1016E0007B681B8800E0002318460C37BD465DF878
:1016F000047B704780B483B000AF786039607B684A
:10170000002B01D1052303E07B683A689A6000232F
:1017100018460C37BD465DF8047B704780B586B02F
:1017200002AFF8607A603B600B46FB72F97A3B6867
:10173000009304237A68F86800F080FD0346184699
:101740001037BD4680BD80B487B000AF7860396087
:101750007B687B613B681B79FB743B680533FB60EE
:10176000FB7C012B07D1FB681B785AB27B695A704E
:101770007B690122DA6000BF1C37BD465DF8047B3F
:10178000704780B588B000AFF860B9607A603B60A0
:10179000FB685B68FB61FB68002B12D0BB68002B09
:1017A0000FD0FB685B7C002B0BD0FB685A7CFB697D
:1017B0001B7A9A4205D87B68042B02D13B68002B28
:1017C00001D1092320E0B868FFF775FFB861BB6954
:1017D0001B0CFB75BB69BB82FB685B7C013BD9B210
:1017E000BB8AFA7DF86900F0BFF80346FB7497F9ED
:1017F0001330002B01D0082306E03B687A68B968F3
:10180000F86800F053FB034618462037BD4680BDFC
:1018100080B588B000AFF860B9607A60FB70FB6893
:10182000002B0BD0BB68002B08D07B68002B05D0A9
:10183000BB6A002B02D0FB6A002B02D14FF0FF33B2
:101840008AE030220021F86810F02CFCFB68BA68AE
:101850001A60FB687A685A60FB68FA6A9A61FB68EA
:101860003A8E9A83BB6A9B78FA789A4204D3BB6A11
:101870009B78013BDBB200E0FB78FA68137200232F
:10188000FB7741E0FB7F0133D9B207F1140201235A
:10189000B86AFFF743FF0346BB7797F91E30002B6A
:1018A0000CD07B6B002B06D0B86AFFF712FF034603
:1018B0001A467B6B1A606FF00B034DE07B691B0CC3
:1018C0007B777B697B837B8B7A7FF97FF86800F07D
:1018D0004BF803467B7697F91930002B11D07B6BC0
:1018E000002B06D0B86AFFF7F4FE03461A467B6B5E
:1018F0001A6097F9193013F10C0F02D097F91930CB
:101900002AE0FB7F0133FB77FB681B7AFA7F9A4260
:10191000B8D3FB68FA681A62FB68114A5A62FB681E
:10192000104A9A62FB6820331946B86AFFF7E2FE54
:101930000346BB7797F91E30002B0CD07B6B002B36
:1019400006D0B86AFFF7C5FE03461A467B6B1A60DD
:101950006FF00B0300E0002318462037BD4680BD22
:10196000FD1D00088317000890B58DB004AF7860A6
:10197000084611461A460346FB700B46BB701346D9
:101980003B800023FB777B68002B04D07B681B7AAD
:10199000FA789A4202D34FF0FF3376E03B88002B6F
:1019A00024D0BB78002B21D00023BB7719E07B68C3
:1019B0005A68BB7F1B01134407F108040FCB84E86E
:1019C0000F00FA78BB7F9A4208D03B69002B05D004
:1019D0003B7ABA789A4201D1F423FB77BB7F01337B
:1019E000BB777B681B7ABA7F9A42E0D397F91F30A6
:1019F000002B48D17B685A68FB781B011344BB61FC
:101A0000BB69BA781A703B884FF47A7202FB03F311
:101A10001A46BB699A60BB69FF225A70BB690022F3
:101A2000DA60BB691B78002B0CD0BB699B68002B6C
:101A300008D0BB691B7803F5E063BB83BB69012257
:101A40009A7007E00023BB83BB6900229A60BB69E0
:101A500000229A707B6898697B689A8BFB789BB2AE
:101A6000134499B27B685A68FB781B011344BA8B04
:101A7000084C029401930023009340F2FF7304F09A
:101A8000D3FE0346FB7797F91F3018462437BD462F
:101A900090BD00BF4717000880B485B000AF7860E4
:101AA0007B681B889BB2FB81FB8918461437BD46B7
:101AB0005DF8047B704780B483B000AF78607B68CA
:101AC000002B02D07B681B8800E0002318460C37EF
:101AD000BD465DF8047B704780B483B000AF78608A
:101AE00039607B68002B01D1052303E07B683A68ED
:101AF0009A60002318460C37BD465DF8047B70479A
:101B000080B586B002AFF8607A603B600B46FB722E
:101B1000F97A3B68009302237A68F86800F08EFB3C
:101B2000034618461037BD4680BD80B487B000AF6D
:101B3000786039603B681B79FB753B6805333B6116
:101B40003B691B78FB733B695B78BB737B68BB604D
:101B5000FB7D022B0AD1BB7B002B04D0BB68DB785A
:101B6000BA7B9A4202D1BB68FA7B9A7000BF1C37DD
:101B7000BD465DF8047B704780B586B000AFF86065
:101B8000B9607A603B60FB68002B0CD0FB685B7C23
:101B9000002B08D1BB68002B05D07B68022B02D13B
:101BA0003B68002B01D1092317E0FB685B687B6170
:101BB000B868FFF771FF03461A464FF47A7303FBC8
:101BC00002F27B699A607B690022DA603B687A687E
:101BD000B968F86800F06AF9034618461837BD4638
:101BE00080BD000080B58AB004AFF860B9607A604B
:101BF000FB700023FB75FB68002B0ED0BB68002B2D
:101C00000BD07B68002B08D0BB6A002B05D03B6C47
:101C1000002B02D07B6B002B02D14FF0FF33B1E0E1
:101C200034220021F86810F03DFAFB6800221A7097
:101C3000FB6800225A70FB68FA78DA70FB683A8C0D
:101C40009A80FB687A681A62BB8C4FF47A7202FB46
:101C500003F31A46FB68DA6007F11402012300213E
:101C6000B868FFF74DFF0346BB7597F91630002B98
:101C70000CD0FB6C002B06D0B868FFF71CFF0346A6
:101C80001A46FB6C1A606FF00B037BE0BB8A1A46A6
:101C90004FF47A7303FB02F2FB689A60FB68FA6800
:101CA0001A61FB68394A5A61FB68394A9A61FB68D4
:101CB00010331946B868FFF70FFF0346BB7597F955
:101CC0001630002B0CD0FB6C002B06D0B868FFF749
:101CD000F2FE03461A46FB6C1A606FF00B0351E0EC
:101CE000FB68DA68FB689B689A4203D9FB689A68CC
:101CF000FB68DA603A8EB98D264B0293FB6801933C
:101D00000023009340F2FF73B86A04F08DFD034690
:101D1000FB7597F91730002B02D097F9173031E097
:101D2000FB687A6B5A62BA8F398F002301930223C2
:101D300000930023786B04F0D3FD0246FB689A629F
:101D4000FB689B6A002B02D14FF0FF331AE0FB685F
:101D50003A6CDA62B7F84820B7F8441000230193D0
:101D6000012300930023386C04F0BAFD0246FB689F
:101D70001A63FB681B6B002B02D14FF0FF3301E0AD
:101D800097F9173018461837BD4680BDFD1D00086D
:101D9000791B00082B1B000880B582B000AF78606B
:101DA0000B46FB701346BB707B68002B02D14FF0D3
:101DB000FF331FE0BB78002B04D07B68DB78BA7858
:101DC0009A4202D17B68FA789A707B689B6A0022FB
:101DD0001A607B689B6AFA785A717B689B6ABA784A
:101DE0009A717B685A6A7B689B6A1946104604F0B0
:101DF0003DFE034618460837BD4680BD80B588B015
:101E000000AFF860B9607A603B60FB68002B05D0DA
:101E1000BB68002B02D03B68002B01D1092341E0B5
:101E2000FB689B68FB61FB681B68BB61BB69002B9F
:101E300001D10E2336E00023FB75FB68DB68002B25
:101E400003D1FA697B689A4222D9FB68DB68FA6998
:101E50009A4201D8092325E0FB68DB68FA69D31AA6
:101E6000FB61FB68DB68BA691344BB61FA697B6894
:101E70009A420AD97B68FB61FB68DA68FB691A44FD
:101E8000FB68DA60FF23FB7502E0FB680022DA6082
:101E9000FA69B969B86810F0ECF93B68FA691A6038
:101EA00097F9173018462037BD4680BD80B588B0F9
:101EB00000AFF860B9607A603B60FB68002B05D02A
:101EC000BB68002B02D03B68002B01D1092347E0FF
:101ED000FB689B68FB61FB681B68BB61BB69002BEF
:101EE00001D10E233CE00023FB75FB68DB68002B6F
:101EF00003D1FA697B689A4222D9FB68DB68FA69E8
:101F00009A4201D809232BE0FB68DB68FA69D31AEF
:101F1000FB61FB68DB68BA691344BB61FA697B68E3
:101F20009A420AD97B68FB61FB68DA68FB691A444C
:101F3000FB68DA60FF23FB7502E0FB680022DA60D1
:101F4000FA697B689A4201D20C2309E0FA69B96800
:101F5000B86910F08EF93B68FA691A6097F9173082
:101F600018462037BD4680BD80B485B000AFF8600C
:101F7000B9607A603B60022318461437BD465DF8AD
:101F8000047B704780B485B000AFF860B9607A60B8
:101F90003B60022318461437BD465DF8047B70474A
:101FA00080B487B000AF78600B467B807B68002BE5
:101FB00003D07B681B88002B01D1002346E000235F
:101FC000FB827B681B88013BBB8226E0FA8ABB8AC6
:101FD00013445B10FB817B685968FA8913465B00E8
:101FE00013449B000B44BB60BB681B887A889A42F1
:101FF00001D1BB682AE0BB681B887A889A4209D263
:10200000FB89002B03D0FB89013B9BB200E0FB89DD
:10201000BB8202E0FB890133FB82FA8ABB8A9A42C7
:10202000D4D3FA8ABB8A9A420FD17B685968FA8A5C
:1020300013465B0013449B000B443B613B691B88C8
:102040007A889A4201D13B6900E0002318461C3788
:10205000BD465DF8047B704780B48DB000AFF8607A
:102060007A603B600B46FB72FB68002B03D0FB6879
:102070005B68002B01D10523D2E07B68002B01D1E6
:102080000923CDE07B687B62FB68DB7803F00F03FC
:10209000032B50D0032B00F38C80012B02D0022B9A
:1020A00015D086E0FB7A002B01D00E23B8E0FB6848
:1020B0005B687B617B691A797B6A1A747B691A6831
:1020C0007B6A1A607B699A687B6A9A6073E0FB6836
:1020D0009B78FA7A9A4201D30E23A1E0FB685B68F1
:1020E000FB61FB7A002B0BD1FB691A7A7B6A1A74AD
:1020F000FB691A687B6A1A607B6A01229A605AE05F
:10210000FB695A7A7B6A1A74FB695B68BB61BB69BD
:10211000002B08D0FB691B69FA7A013A02FB03F332
:10212000BA69134400E0BB697A6A1360FB69DA6834
:102130007B6A9A603FE0FB685B683B620023FB625E
:10214000002387F82B301CE097F82B2013465B0008
:1021500013449B001A463B6A13441B79FA7A9A424D
:102160000AD197F82B2013465B0013449B001A46B4
:102170003B6A1344FB620AE097F82B30013387F87F
:102180002B30FB689B7897F82B209A42DCD3FB6AB4
:10219000002B01D10E2343E0FB6A5A797B6A1A7443
:1021A000FB6A1A687B6A1A60FB6A9A687B6A9A60A3
:1021B00001E0092334E0FB689B68002B02D03B68F8
:1021C000002B09D07B68194A5A617B68184A9A61CA
:1021D0007B6A00225A601CE0FB689B685B68002BEE
:1021E00003D0FB689B685B6800E0124B7A68536120
:1021F000FB689B689B68002B03D0FB689B689B680F
:1022000000E00D4B7A689361FB689B681A687B6AF3
:102210005A607B6A0022DA607B6AFA7A5A74002379
:1022200018463437BD465DF8047B7047FD1D000835
:10223000AD1E0008691F0008851F000890B58FB00B
:1022400000AFF8607A603B600B46FB727B68002B46
:1022500001D1092324E007F114037B6300233B61D0
:1022600007F11402F97ABB6CF868FFF7F5FE034634
:1022700087F8333097F93330002B02D097F9333099
:102280000EE07B6B9B683A689A4201D00B2307E013
:10229000BC6A07F110033A687968786BA047034677
:1022A00018463C37BD4690BD90B58FB000AFF86082
:1022B0007A603B600B46FB7207F114037B630023DB
:1022C0003B6107F11402F97ABB6CF868FFF7C4FEB2
:1022D000034687F8333097F93330002B02D097F953
:1022E00033300EE07B6B9B683A689A4201D00B2337
:1022F00007E0FC6A07F110033A687968786BA04739
:10230000034618463C37BD4690BD80B58EB000AF41
:10231000F8607A603B600B46FB7207F114033B6385
:1023200007F11402F97A0123F868FFF795FE0346D6
:1023300087F8373097F93730002B16D13B6B1B6885
:10234000002B03D03B6B9B68002B03D1092387F83C
:1023500037300AE07B68002B07D03B6B9B687A68BC
:102360009A4202D00B2387F837303B68002B03D00A
:102370003B6897F837201A7097F93730002B02D155
:102380003B6B1B6800E0002318463837BD4680BD14
:1023900080B485B000AF78607B681B78FB73FB7BF3
:1023A00018461437BD465DF8047B704780B485B08D
:1023B00000AF78607B681B889BB2FB81FB89184665
:1023C0001437BD465DF8047B704780B485B000AF1C
:1023D00078607B681B68FB60FB6818461437BD4655
:1023E0005DF8047B704780B483B000AF78603960DB
:1023F0003A687B681A60042318460C37BD465DF8BE
:10240000047B704780B483B000AF78607B68002B9A
:1024100002D07B681B8800E0002318460C37BD46BD
:102420005DF8047B704780B483B000AF786039609A
:102430007B68002B01D1052303E07B683A689A6032
:10244000002318460C37BD465DF8047B704780B505
:1024500086B002AFF8607A603B600B46FB72F97A97
:102460003B68009301237A68F868FFF7E7FE0346AC
:1024700018461037BD4680BD80B586B002AFF86003
:102480007A603B600B46FB72F97A3B68009302234B
:102490007A68F868FFF7D2FE034618461037BD4643
:1024A00080BD80B586B002AFF8607A603B600B46B5
:1024B000FB72F97A3B68009304237A68F868FFF7A7
:1024C000BDFE034618461037BD4680BD80B485B0BA
:1024D00000AFF860B9607A603B603B68002B02D0C7
:1024E0003B687A681A60002318461437BD465DF8C9
:1024F000047B704780B584B000AFF860B9607A6043
:102500003B60BB68002B05D0FB68002B02D03B680A
:10251000002B01D1092310E0FB689B687A689A427E
:1025200002D9FB689B687B607A680021B8680FF06D
:10253000B9FD3B687A681A60002318461037BD461B
:1025400080BD0000B0B592B000AFF860B9603B60EC
:102550001346FB71BB681B0CA7F84630BB681B0A0F
:1025600087F84530BB6887F8443097F84430DB087B
:1025700087F84330FA791346DB009B1A9B0010332F
:10258000FA681344FB6397F84330082B01D90723FB
:1025900090E0B7F846301F2B1AD897F84530002B3B
:1025A00016D1FB6BBB6314220021B86B0FF07AFDD0
:1025B00097F84320BB6BDA60BB6BDA68BB6B9A6041
:1025C000FB6B3E4A5A61FB6B3D4A9A61002371E006
:1025D000B7F846301946B86DFFF7E2FC786307F1AB
:1025E000140297F845100023786BFFF735FD03467A
:1025F00087F8333097F93330002B02D097F9333016
:1026000058E03B68002B01D0082300E0042387F842
:10261000323097F8242097F832301340DBB2002B89
:102620000AD097F8443003F00703002B04D1FA696D
:1026300097F843309A4201D206233BE0FB6B1D46DC
:1026400007F114040FCC0FC594E8070085E80700D4
:1026500097F84320FB6BDA603B68002B29D197F891
:1026600045301F2B1FD87B6B9B68002B1BD07B6BCF
:10267000996897F84530DB08DBB2FA7908330B44E8
:10268000191DFB683C3243F8221097F8453003F0DF
:10269000070301229A40FB79D1B2FA6813440A4633
:1026A00083F8102105E0FA79FB683C32002143F8F9
:1026B0002210002318464837BD46B0BDF524000857
:1026C000CD24000880B58CB002AFF860B9607A60A4
:1026D0003B6000237B620023FB7607F11B02012392
:1026E00000217868FFF7B3FE034687F8223097F998
:1026F0002230002B0CD03B6B002B06D07868FFF704
:1027000081FE03461A023B6B1A606FF00B0382E0F6
:10271000002387F823305EE097F823201346DB0080
:102720009B1A9B001033FA681344FB6100237B6102
:1027300097F823300133D9B207F1140201237868E6
:10274000FFF7AFFE034687F8223097F922300E2BB1
:102750003BD097F92230002B0FD03B6B002B09D0D8
:102760007868FFF74FFE03461A0297F823301A43A2
:102770003B6B1A606FF00B034DE0796997F82320EB
:10278000BB6800933B68F868FFF7DCFE034687F8F8
:10279000223097F92230002B0CD0FB6900229A607E
:1027A000FB69FF22DA607B6B1B68002B02D17A6920
:1027B0007B6B1A60FB7E97F823209A4206D2FB6956
:1027C000DB687A6A13447B6200E000BF97F823302D
:1027D000013387F8233097F82330072B9CD97B6A85
:1027E000082B05D87B6A002B09D1FB7E002B06D075
:1027F0007B6B1B68002B02D17B6B01221A607B6B09
:102800001B68002B06D17B6ADAB2FB681A73FA7E6A
:10281000FB685A73002318462837BD4680BD80B533
:102820008EB002AFF860B9607A603B60FB68002B45
:1028300009D0BB68002B06D03B68002B03D0FB6897
:102840005B7C082B01D9092381E0FB685B687B6214
:102850007B6A9B68002B07D17B6A5B7B002B05D0D2
:10286000FB685B7C002B01D0022370E0FB685B7C83
:10287000002B48D1B868FFF78BFD0346BB770023D8
:10288000FB62BB7F082B01D9072360E0002387F898
:102890002B301EE097F82B201346DB009B1A9B0081
:1028A00010337A6A1344BB61BB699B687B61BB6967
:1028B000DB683B613A697B699A4201D9062346E0AD
:1028C000FA6A3B691344FB6297F82B30013387F8AF
:1028D0002B3097F82B20BB7F9A42DBD3FB6A082B67
:1028E00001D9072333E0FB6A002B04D1BB7F002B07
:1028F00001D00F232BE0FB6ADAB27B6A1A737B6A82
:10290000BA7F5A731CE0B868FFF75FFD3862FB6856
:102910005B7C013BDAB27B6AD3F818117B6AD3F88F
:102920001C3100930B46396A786AFFF70BFE0346A9
:10293000FB7797F91F30002B02D097F91F3006E084
:102940003B687A68B968F868FFF7B0FA034618463A
:102950003037BD4680BD000080B588B000AFF8605C
:10296000B9607A603B603B687A68B968F868FFF7DD
:1029700045FA0346FB7697F91B30002B34D1FB68F0
:102980005B7C012B30D13B681B68042B2CD1FB688E
:102990005B687B61B868FFF718FDF861FB699BB263
:1029A000C3F30A037B827B8A002B11D07A8A7B696E
:1029B000B3F8223119464FF680730B409A4207D183
:1029C000FA690C4B13407A69B2F822211343FB6178
:1029D0007B699B68002B03D1FB6943F00043FB61DB
:1029E000F969B868FFF7FFFC97F91B3018462037E4
:1029F000BD4680BD0000FFFF80B588B000AF7860A5
:102A000039607B68BB61BB697B613B681B79FB7488
:102A10003B680533FB60BB6993F86031FB777B69EA
:102A20009B68002B3ED07B691B7BFA7C9A4234D397
:102A30007B691B7BFA7C9A4205D1FB7F012B07D176
:102A40000B23FB7704E0FB7F002B01D10D23FB77E9
:102A50000023BB77BB69D3F86831002B0CD0BB696E
:102A6000D3F86431002B07D0BB69D3F86431DB683D
:102A7000002B01D00123BB77BB7F2A33DB00BA696F
:102A800013440822F96818460FF0F3FBBA7FBB69BC
:102A90005232012143F8221004E0FB7F002B01D1C8
:102AA0000C23FB77BB69FA7F83F8602100BF2037D6
:102AB000BD4680BD80B592B004AFF860B9607A6061
:102AC0003B60FB68002B08D0BB68002B05D03B683F
:102AD000002B02D07B68042B01D90923FFE0FB689F
:102AE0005B683B633B6BFB6207F110037A68B96874
:102AF00018460FF0BEFBFB685B7C052B00F0D48012
:102B0000052B00F3E480012B03D0022B00F0A580FD
:102B1000DDE0B868FFF759FCF861FB699BB2C3F3CD
:102B20000A03FB86FB69DB43DB0FDBB2BB61FA699F
:102B30006D4B1340002B3DD1BB69002B09D0FB6AC4
:102B40009B68002B05D0FB6AB3F82431FA8E9A42B9
:102B500030D1BB69002B26D0FB8E7F2B2AD9FB8E70
:102B6000B3F5807F03D9FB8EB3F5C07F22D9FB8EEE
:102B7000B3F5B06F03D9FB8EB3F5C06F1AD3FB8EDC
:102B8000B3F5C06F03D9FB8EB3F5D06F12D3FB8EB4
:102B9000B3F5DC6F03D3FB8EB3F5E06F0AD3FB8E86
:102BA000B3F5E06F06D8BB69002B05D0FB6A5B7BF1
:102BB000002B01D10F2392E0FB6A9B68BA699A420D
:102BC00005D1FB6AB3F82431FA8E9A427ED0FB6AB3
:102BD000B3F82231FA8E9A4208D1FB6923F07F02C2
:102BE00007F1100311461846FFF7FDFBBB69002BE8
:102BF00001D10023FB86FB6A5868FB6AB3F82011F9
:102C0000FA8E3A4B02933B6B01930023009340F200
:102C1000FF7303F009FE0346FB75BB69002B0BD065
:102C200097F91730002B07D1FB6A01229A60FB6AE3
:102C3000FA8EA3F8242149E0FB6A00229A603B6BDC
:102C40000022C3F848213B6B0022C3F84C2197F9BE
:102C50001730002B3AD0092341E0B868FFF798FB02
:102C6000034687F8273097F82730F02B05D997F8D7
:102C70002730FD2B01D80F2331E097F82730F02BB8
:102C800094BF01230023DBB23B623B6BD3F8683176
:102C90003A6A9A4203D03B6B0022C3F84C213B6B4B
:102CA0003A6AC3F8682112E0B868FFF77FFB034671
:102CB000BB62BB6A4FF47A7203FB02F23B6BC3F850
:102CC0006C213B6B0022C3F8702100E000BF07F1CC
:102CD00010013B687A68F868FFF7E8F80346184681
:102CE0003837BD4680BD00BF00F8FF3FF929000816
:102CF00080B590B004AFF860B9607A603B60FB6863
:102D00007B62FB68002B0ED0BB68002B0BD07B686E
:102D1000002B08D0FB6B002B05D03B6C002B02D0A6
:102D20007B6C002B02D14FF0FF3318E14FF4BA72E5
:102D30000021F8680FF0B6F97B6A7A681A607B6A3E
:102D40007A6C5A600023FB6107F11C030193FB6C52
:102D5000009301233A6CB968786AFFF7B3FC034625
:102D600087F8233097F92330002B02D097F92330CE
:102D7000F5E00023BB6107F1180201230121F86B84
:102D8000FFF78FFB034687F8223097F92230002B9C
:102D90000ED0FB6C002B08D0F86BFFF733FB03461B
:102DA0001B0243F00102FB6C1A606FF00B03D6E0CC
:102DB000BB69DB43DB0FDBB2FB62BB699BB2C3F3D6
:102DC0000A037B85FB6A002B0DD07B6A5B7B002BA3
:102DD00002D07B8D002B06D10023FB62FB69002B08
:102DE00001D10123FB61FB69002B0ED07B6A1868BF
:102DF000FB69012B01D0FB6900E0BB6900934FF434
:102E000002431A220121FEF799FBFB6A002B01D134
:102E100000237B857B8D002B08D07A8D398F4FF670
:102E200080730B409A4201D13B8F7B857A8DB7F836
:102E300048104D4B0293FB6801930023009340F22E
:102E4000FF73786C03F0F0FC034687F8233097F9A2
:102E50002330002B02D097F9233080E07B6AFA6A96
:102E60009A60FE23FB7507F1170201230221F86B1C
:102E7000FFF7EDFA034687F8223097F92230002B4E
:102E80000ED0FB6C002B08D0F86BFFF7BBFA0346A3
:102E90001B0243F00202FB6C1A606FF00B035EE052
:102EA000FB683A68C3F86421FB7DF02B94BF0123D3
:102EB0000023DBB21A46FB68C3F868210023BB82FB
:102EC00007F1140201230521F86BFFF7D5FA034639
:102ED00087F82230BB8A1A464FF47A7303FB02F25A
:102EE000FB68C3F86C217B6A0122C3F818217B6A56
:102EF000BA68C3F81C217B6AB7F84820A3F82021E0
:102F00007B6A3A8FA3F822217B6A7A8DA3F8242169
:102F10007B6AFA68C3F828217B6A144AC3F82C211B
:102F20007B6A134AC3F830217B6AFA68C3F83821F8
:102F30007B6A104AC3F83C217B6A0F4AC3F84021E0
:102F40007B6A03F594731946F86BFFF76CFA7B6A9A
:102F500003F59C731946386CFFF765FA0023184691
:102F60003037BD4680BD00BFF92900085929000847
:102F7000B52A0008FD1D00081F28000890B597B06D
:102F800002AFF860B9607A603B60FB687B637B6B83
:102F90009B68002B00F00C813B68002B00F008813F
:102FA0003B6E002B05D1FB68D3F86831002B40F055
:102FB000FF80FB6893F860310A2B28D9FB6893F8EF
:102FC00060310B2B14BF01230023DBB23B63FB6892
:102FD00093F860310C2B02D148F2102301E048F243
:102FE0002023FB857B6B18687B6B1B7B1A46FB8D54
:102FF00000920422396BFEF7A1FA3B6B002B14BF41
:1030000001230023DBB21A46FB6883F8602100230A
:1030100087F84F30FB68D3F86831002B0DD0FB6880
:10302000D3F86431002B08D0FB68D3F86431DB6837
:10303000002B02D1012387F84F300023BB6465E0E9
:103040000123BB6497F84F302A33DB00FA6813443E
:103050007B6497F84F20FB685232002143F822101E
:10306000002387F843304BE097F843201346DB00FA
:103070009B1A9B0010337A6B1344BB62BB6A0C3300
:103080007B627B6A1B6887F82330BB6A9B68FB63A3
:10309000FB6B082B01D90823FB6397F82330FA6BED
:1030A0009A4212D907F118030822002118460EF09F
:1030B000F9FF97F8232007F11803796C18460FF0F1
:1030C000D8F807F11803BB6301E07B6CBB637B6A34
:1030D00000221A60BB6A9C69B86A07F11403FA6B94
:1030E000B96BA04797F823207B6A1A6097F82330C2
:1030F0007A6C13447B6497F84330013387F843308C
:103100007B6B5B7B97F843209A42ADD397F84F20B7
:10311000FB68523253F82230002B91D1FB68D3F870
:103120006C31002B58D0BB6C002B17D0FB68D3F848
:103130007021FB68D3F86C319A420AD97B6B18680E
:10314000FB68D3F870310093002317220021FEF7AB
:10315000F5F9FB680122C3F870213DE0FB68D3F864
:103160007031002B38D0FB68D3F87021FB68D3F89E
:103170006C319A4230D2FB68D3F87021BB681A4494
:10318000FB68C3F87021FB68D3F87021FB68D3F8A3
:103190006C319A4220D97B6B1868FB68D3F8703188
:1031A000009348F2502317220121FEF7C7F913E0DC
:1031B0007B6B9B68002B02D03B68002B0DD1FB681A
:1031C0000022C3F84821FB680022C3F84C21FB68A9
:1031D0000022C3F8702100E000BF00BF5437BD4695
:1031E00090BD000090B593B002AFF860B9607A600E
:1031F0003B60FB68002B08D0BB68002B05D03B6808
:10320000002B02D07B68042B01D9092336E1FB682F
:103210005B68BB63BB6B7B6307F114037A68B968B7
:1032200018460FF026F8FB685B7C013B052B00F28B
:103230001D8101A252F823F05132000887330008A3
:10324000ED3300086D3400081B3400083F340008DB
:10325000B868FFF7BAF838623B6A9BB2C3F30A0357
:10326000FB873B6ADB43DB0FDBB2FB613A6A854BD2
:103270001340002B3DD1FB69002B09D07B6B9B6871
:10328000002B05D07B6BB3F82431FA8F9A4230D1F2
:10329000FB69002B26D0FB8F7F2B2AD9FB8FB3F540
:1032A000807F03D9FB8FB3F5C07F22D9FB8FB3F5A5
:1032B000B06F03D9FB8FB3F5C06F1AD3FB8FB3F593
:1032C000C06F03D9FB8FB3F5D06F12D3FB8FB3F56B
:1032D000DC6F03D3FB8FB3F5E06F0AD3FB8FB3F53D
:1032E000E06F06D8FB69002B05D07B6B5B7B002B66
:1032F00001D10F23C2E07B6B9B68FA699A4206D129
:103300007B6BB3F82431FA8F9A4200F0AE807B6B6E
:10331000B3F82231FA8F9A4208D13B6A23F07F0238
:1033200007F1140311461846FFF75DF8FB69002BFF
:1033300001D10023FB877B6B58687B6BB3F82011AE
:103340007B6B1B7BBA6B92F84C21F02A94BF012255
:103350000022D2B21446FA8F01940093002303F0A6
:10336000BFFAB861BB69002B01D1092386E0BB6BB2
:10337000BA69C3F848217B6BFA699A607B6BFA8F54
:10338000A3F8242171E0B868FFF702F8034687F834
:10339000273097F82730F02B05D997F82730FD2BE9
:1033A00001D80F236AE097F82730F02B94BF012350
:1033B0000023DAB2BB6BD3F848315A61BB6BFF22F2
:1033C00083F85921BB6B97F8272083F84C21BB6BFE
:1033D0000122C3F85021BB6B0022C3F86821BB6BEC
:1033E000D3F86821BB6BC3F864213FE07B6B9B681B
:1033F000002B01D00F2341E0B868FEF7D7FF03464A
:10340000BB62BB6A642203FB02F2BB6BC3F85C21A4
:10341000BB6B0022C3F8642128E0B868FEF7C6FF42
:103420000346FB62FB6A4FF47A7203FB02F2BB6B4A
:10343000C3F86021BB6B0022C3F8682116E0B868AE
:10344000FEF7A6FF034687F833307B6B9B68002BA3
:1034500003D197F83330F02B01D90F230EE0BB6B6B
:1034600097F8332083F8582100E000BF07F11401DA
:103470003B687A68F868FEF719FD0346184644373A
:10348000BD4690BD00F8FF3F80B58EB002AFF8603A
:10349000B9607A603B60FB687B62FB68002B0ED0F2
:1034A000BB68002B0BD07B68002B08D0FB6B002B7C
:1034B00005D03B6C002B02D07B6C002B02D14FF06F
:1034C000FF334DE14FF4B6720021F8680EF0EAFDCB
:1034D0007B6A7A681A607B6A7A6C5A600023FB61A7
:1034E00007F11C030193FB6C009300233A6CB9684D
:1034F000786AFFF7E7F8034687F8233097F9233017
:10350000002B02D097F923302AE1FE23FB7607F146
:103510001B0201230221F86BFEF799FF034687F88F
:10352000223097F92230002B0ED0FB6C002B08D0F4
:10353000F86BFEF767FF03461B0243F00202FB6CC9
:103540001A606FF00B030BE1FB7EFD2B04D8FB7EB2
:10355000F02B01D9FE23FB76FA7EFB6883F84C2121
:10356000FB680122C3F8502100237B6107F114029C
:1035700001230121F86BFEF794FF034687F8223000
:1035800097F92230002B0ED0FB6C002B08D0F86B83
:10359000FEF738FF03461B0243F00102FB6C1A6082
:1035A0006FF00B03DCE07B69DB43DB0FDBB2FB621C
:1035B0007B699BB2C3F30A037B85FB6A002B0DD0AA
:1035C0007B6A5B7B002B02D07B8D002B06D1002316
:1035D000FB62FB69002B01D10123FB61FB69002B1E
:1035E0000ED07B6A1868FB69012B01D0FB6900E0F3
:1035F0007B6900934FF402431A220121FDF79EFFDD
:10360000FB6A002B01D100237B857B8D002B08D02A
:103610007A8D398F4FF680730B409A4201D13B8FE0
:103620007B857B6A1B7BFA6892F84C21F02A94BF59
:1036300001220022D2B210467A8DB7F848100190CC
:1036400000930023786C03F04BF90246FB68C3F843
:103650004821FB68D3F84831002B02D14FF0FF33EB
:103660007EE07B6AFA6A9A6000237B8200233B82B9
:1036700007F1120201230321F86BFEF7FDFE03465A
:1036800087F8223007F1100201230521F86BFEF7BD
:10369000F3FE034687F822307B8A1A46642303FB35
:1036A00002F2FB68C3F85C213B8A1A464FF47A7336
:1036B00003FB02F2FB68C3F86021FB68002283F879
:1036C0005821FB6803F5AC7201230621F86BFEF765
:1036D000BEFE034687F82230FB683A68C3F85421DF
:1036E000FB68FF2283F859217B6A0022C3F8182166
:1036F0007B6ABA68C3F81C217B6AB7F84820A3F834
:1037000020217B6A3A8FA3F822217B6A7A8DA3F865
:1037100024217B6AFA68C3F828217B6A124AC3F81D
:103720002C217B6A114AC3F830217B6AFA68C3F8FE
:1037300038217B6A0E4AC3F83C217B6A0D4AC3F8E4
:1037400040217B6A03F594731946F86BFEF76BFE14
:103750007B6A03F59C731946386CFEF764FE002300
:1037600018463037BD4680BD59290008E5310008AC
:10377000FD1D00081F28000890B591B000AF7860CB
:103780007B68FB627B68D3F848310533FB637B6859
:1037900093F84C31002B04D07B6893F84C31FD2B0F
:1037A00001D9012300E00023BB62002387F83B30EE
:1037B00062E097F83B201346DB009B1A9B00103316
:1037C000FA6A13447B627B6A3B623B6ADB68FB7785
:1037D0003B6A9B687B637B6B082B01D908237B6367
:1037E000FB7F7A6B9A420AD907F110030822002165
:1037F00018460EF057FC07F110033B6301E0FB6B2A
:103800003B633B6A0022DA607B6A5C6907F10C0368
:103810007A6B396B386AA047FA7F3B6ADA60FB7FC4
:103820007A6B9A4206D9FA7F07F110031946F86BB2
:103830000EF01FFD97F83B20FB6A3C3253F8223014
:10384000BB61BB69002B0ED0BB6A002B0BD0BB69E0
:103850001A7897F83B30F96A0B4493F81031134308
:10386000DAB2BB691A70FB7FFA6B1344FB6397F8FB
:103870003B30013387F83B30FB6A5B7B97F83B209A
:103880009A4296D37B680022C3F850217B68D3F814
:1038900060217B68C3F868217B68D3F85C217B6872
:1038A000C3F86421FB6A5A687B68D3F8483119462B
:1038B000104603F0DBF8034618464437BD4690BD7A
:1038C00080B588B000AFF860B9607A603B60FB6893
:1038D000BB61BB699B68002B00F0DC803B68002B60
:1038E00000F0D880FB6893F84C31002B04D0FB68C3
:1038F00093F84C31FD2B46D9FB68D3F86031002B8F
:1039000018D0FB68D3F86831BA689A4205D2FB68D0
:10391000D3F86821BB68D31A00E00023FA68C2F824
:103920006831FB68D3F86831002B03D1FB680122B2
:10393000C3F85021FB68D3F85031002B23D100236A
:10394000FB771BE0FA7FBB693C3253F822307B6186
:103950007B69002B0FD07B691A78FB7FB9690B4418
:1039600093F810311340DBB2002B04D1FB68012225
:10397000C3F8502107E0FB7F0133FB77BB695B7B1A
:10398000FA7F9A42DED3FB6893F84C31FD2B1DD9A8
:10399000FB68D3F86431BA689A4205D2FB68D3F861
:1039A0006421BB68D31A00E00023FA68C2F86431CE
:1039B000FB68D3F85031002B7FD0FB68D3F864311B
:1039C000002B7AD1F868FFF7D7FE76E0FB68D3F8D2
:1039D0005431002B71D0BB6A002B6ED0FB6893F87A
:1039E0004C31002B08D1FB68D3F85031002B64D048
:1039F000F868FFF7C1FE60E0FB6893F85931FF2BD0
:103A000019D1FB68D3F854315B7C002B09D0FB68DB
:103A100093F85831002B04D0FB68FE2283F859211B
:103A200009E0FB6893F84C315B08DBB20133DAB292
:103A3000FB6883F85921FB6893F85931FE2B12D1AA
:103A4000FB68D3F854319A7CFB6893F858319A425A
:103A500033D1FB6893F84C21FB6883F85921F8684F
:103A6000FFF78AFE29E0FB6893F85931013BDAB28F
:103A7000FB6883F85921FB6893F85931002B1CD15E
:103A8000FB6893F84C21FB6883F85921F868FFF72D
:103A900073FE12E0FB680122C3F85021FB6800228C
:103AA000C3F86821FB68D3F86821FB68C3F8642178
:103AB000FB68FF2283F8592100E000BF00BF2037D8
:103AC000BD4680BD80B483B000AF78607B68002BBA
:103AD00002D07B681B8800E0002318460C37BD46E7
:103AE0005DF8047B704780B586B002AFF8607A60FD
:103AF0003B600B46FB72F97A3B68009301237A68BE
:103B0000F868FEF79BFB034618461037BD4680BD9C
:103B100080B586B002AFF8607A603B600B46FB72FE
:103B2000F97A3B68009304237A68F868FEF786FB0D
:103B3000034618461037BD4680BD80B483B000AF41
:103B400078607B68002B06D07B680022DA607B6897
:103B500000229A6000BF00BF0C37BD465DF8047BB1
:103B6000704780B485B000AF78607B689B681A4668
:103B70007B68DB68D31AFB60FB68002B05DA7B6887
:103B80005B681A46FB681344FB60FB6818461437F1
:103B9000BD465DF8047B704780B586B000AF7860A5
:103BA00039607B687B613B681B79FB743B6805333C
:103BB000FB607B6993F82C30DBB2002B14D0FB7CCC
:103BC000082B11D17B69DB6E002B03D0FB681B78BF
:103BD000802B09D17B6970330822F96818460EF0F2
:103BE00048FB7B690122DA6600BF1837BD4680BDFD
:103BF00080B588B000AFF860B9607A60FB70FB6890
:103C0000002B16D07B68002B13D07868FFF75AFF83
:103C10000346B3F5945F0CD37868FFF753FF034670
:103C2000B3F5985F05D2BB6A002B02D03B6B002B2B
:103C300002D14FF0FF3368E0FB68BA6A1A60FB6894
:103C4000BA8D9A80FB683A6B9A60FB68BA8E9A814B
:103C5000FB6803F13800FB6848332122194601F064
:103C600065FB07F11A02012300217868FFF73BFF8B
:103C70000346FB7707F11402012301217868FFF75F
:103C800047FF0346BB7707F1100201230221786842
:103C9000FFF73EFF03467B7707F11902012303215B
:103CA0007868FFF720FF03463B7797F91F30002B1A
:103CB0000ED1BB7E032B0BD197F91E30002B07D101
:103CC00097F91D30002B03D197F91C30002B0CD035
:103CD000BB6B002B06D07868FFF7F4FE03461A464C
:103CE000BB6B1A606FF00B030FE079693A697B7E5A
:103CF000F86800F00FF80346FB7697F91B30002BAD
:103D000002D04FF0FF3300E0002318462037BD46B5
:103D100080BD000080B58AB004AFF860B9607A60F9
:103D2000FB70FB68002B02D16FF001035FE0FB68C2
:103D3000002283F82C20FB680022DA66FB68FA7800
:103D40001A75BB68002B05DBBB689BB2C3F30A0383
:103D50009BB200E00023FB827B68002B05DB7B68C5
:103D60009BB2C3F30A039BB200E00023BB82FB8A31
:103D7000002B06D0BB8A002B03D0FB6801229A617E
:103D800006E00023FB820023BB82FB6800229A61CD
:103D9000FB681868FB689988BA8A174B0293FB681E
:103DA00001930023009340F2FF7302F03DFD0346B0
:103DB000FB74FB689868FB689989FA8A0023019371
:103DC00008230093002302F08BFD0246FB681A6172
:103DD00097F91330002B03D1FB681B69002B05D129
:103DE000FB6800229A616FF0010300E0002318468F
:103DF0001837BD4680BD00BF993B000880B584B030
:103E000000AFF8607B600B467B8113467B72FB68DA
:103E1000002B03D0FB689B69002B02D16FF00103DC
:103E200025E0FB687A899A83FB687A7A9A77FB683F
:103E30007A685A62FB6800229A62FB6800221A6262
:103E40003B8B4FF47A7203FB02F2FB681A63FB6848
:103E500000225A63FB6838331846FFF76EFEFB6892
:103E6000112283F82C20FB680022DA660023184612
:103E70001037BD4680BD80B586B000AFF860B96030
:103E80007A6000237B61FB68002B0BD0BB68002BA2
:103E900008D0FB6803F1380000237A68B96801F0A4
:103EA00067FA78617B6918461837BD4680BD000007
:103EB00080B58AB000AFF860B9607A603B600123DA
:103EC00087F8273000233B62FB68002B03D0FB6898
:103ED0009B69002B05D18A4B3B62FE2387F8273074
:103EE0008AE0FB6893F82C30DBB2002B03D100236F
:103EF00087F8273080E0FB68DB6E002B6DD0FB6815
:103F000093F87030802B0DD1FB6874331B687B6194
:103F10007B693B62FB68002283F82C20F62387F83C
:103F2000273051E07B68002B0CD03B6B002B02D07C
:103F30003B6B1B6800E0724B3B62FB68012283F81D
:103F40002C2041E0FB6893F82C30DBB2122B34D1EB
:103F5000FB6893F87030602B28D1FB6893F87230BF
:103F60001B02FB83FB6893F871301A46FB8B1343EB
:103F7000FB83FB6893F873307B77FB689B8BFA8B32
:103F80009A4204D1FB689B7F7A7F9A4206D05D4BB0
:103F90003B62FB68012283F82C2015E0FB680022BD
:103FA00083F82C20002387F827300DE0564B3B6226
:103FB000FB68012283F82C2006E0534B3B62FB6830
:103FC000012283F82C2000BFFB6800225A630023E3
:103FD000BB60FB680022DA660EE07B68002B0BD02A
:103FE0003B6B002B02D03B6B1B6800E0444B3B62F9
:103FF000FB68012283F82C2097F92730012B1FD171
:10400000FB685A6BFB681B6B9A4205D2FB685A6BC4
:10401000BB681A44FB685A63FB685A6BFB681B6BEE
:104020009A4205D3394B3B62FB68012283F82C206E
:10403000FB681B691B69002B02D0042387F827301B
:1040400097F92730012B40F0A780FB681B690533E7
:104050000822002118460EF025F8FB6893F82C3052
:10406000DBB2112B40F09780FB681B6920225A714C
:10407000FB689A8BFB681B69D2B29A71FB689B8BB9
:104080001B0A9AB2FB681B69D2B2DA71FB681B6922
:10409000FA68927F1A72FB6838331846FFF761FDA1
:1040A000B861FB685B6A002B02D1BB69042B07D99E
:1040B000FB685B6A002B64D0FB685B6A042B60D8EA
:1040C000FB681B695A79FB681B6942F00202D2B295
:1040D0005A71BB69002B08D0FB685B6A002B19D0B2
:1040E000FB685B6ABA699A4214D0FB68002283F8C5
:1040F0002C20074B3B62F72387F827304CE000BFAA
:1041000047000406430004060100040500000405FE
:1041100010000706FB685B6A002B11D0FB681B6967
:104120005A79BB69DBB2C3F10403DBB29B00DBB29B
:104130001343DAB2FB681B6942F00102D2B25A7132
:10414000FB6803F13800FB681B6903F109010023D8
:10415000BA6901F065F9FB68BA699A62FB680122E5
:104160001A62FB6800225A63FB689A68FB681B6945
:104170001946104602F07AFCFB68122283F82C20C4
:104180000AE0FB68002283F82C20284B3B62F723CF
:1041900087F8273000E000BF97F92730012B32D194
:1041A000FB6893F82C30DBB2012B2CD13B6A3B61CE
:1041B000FB681B6980225A71FB689A8BFB681B693C
:1041C000D2B29A71FB689B8B1B0A9AB2FB681B697F
:1041D000D2B2DA71FB681B69FA68927F1A72FB68C7
:1041E0001B6909333A691A60FB689A68FB681B69A6
:1041F0001946104602F03AFCFB68002283F82C2096
:10420000F72387F827307B6B002B03D0FB689A6A73
:104210007B6B1A603B6B002B02D03B6B3A6A1A60D7
:1042200097F9273018462837BD4680BD00000106A3
:1042300080B485B000AF78607B681B78FB73FB7B34
:1042400018461437BD465DF8047B704780B485B0CE
:1042500000AF78607B681B68FB60FB68184614370A
:10426000BD465DF8047B704780B483B000AF7860D2
:104270007B68002B02D07B681B8800E00023184677
:104280000C37BD465DF8047B704780B483B000AF47
:10429000786039607B68002B01D1052303E07B68DF
:1042A0003A689A60002318460C37BD465DF8047BD7
:1042B000704780B586B002AFF8607A603B600B460D
:1042C000FB72F97A3B68009301237A68F868FDF77E
:1042D000B5FF034618461037BD4680BD80B586B091
:1042E00002AFF8607A603B600B46FB72F97A3B687C
:1042F000009304237A68F868FDF7A0FF0346184688
:104300001037BD4680BD80B586B002AFF8607A60D8
:104310003B600B46FB723A1DF97A3B68009304231D
:10432000F868FDF7C1FF034618461037BD4680BD4B
:1043300080B586B000AF786039607B687B613B6890
:104340001B79FB743B680533FB60FB7C082B15D1A4
:10435000FB681B78802B03D17B6900221A750DE066
:104360007B699B6B002B09D17B693C33FA7CF96834
:1043700018460DF07EFF7B6901229A6300BF183753
:10438000BD4680BD80B58AB004AFF860B960114603
:104390001A460B46FB801346BB80FB68DB6C3A6A0F
:1043A0009A4206D1FB681B6D7A6A9A4201D10023BA
:1043B0004EE0FB683A6ADA64FB687A6A1A653B6A1F
:1043C000002B02DB3B6A9BB200E00023FB827B6A8E
:1043D000002B02DB7B6A9BB200E00023BB82FB8ADE
:1043E000002B06D0BB8A002B03D0FB6801221A6188
:1043F00006E00023FB820023BB82FB6800221A61D7
:10440000FA8AF988144B0293FB6801930023009306
:1044100040F2FF73B86802F007FA0346FB74FB68CA
:104420001868BA8AB98800230193082300930023EF
:1044300002F056FA0246FB685A60FB685B68002B84
:1044400004D1FF23FB74FB6800221A6197F9133033
:1044500018461837BD4680BD3143000890B58FB06F
:1044600002AFF860B9607A603B60FB68002B05D052
:10447000BB68002B02D03B68002B01D10923F9E077
:10448000FB685B68FB62FB685B7C032B00F2E880E7
:1044900001A252F823F000BFA9440008AD4400086F
:1044A00071450008374600080423E3E0B868FFF7C9
:1044B000CDFEB861BB699BB2C3F30A03FB82FB6A02
:1044C000DB6C9BB2C3F30A03BB82BB69DB43DB0F2C
:1044D000DBB23B61BA69694B1340002B34D13B69B5
:1044E000002B07D0FB6A1B69002B03D0FA8ABB8A1A
:1044F0009A4229D13B69002B28D0FB8A7F2B23D9F4
:10450000FB8AB3F5807F03D9FB8AB3F5C07F1BD943
:10451000FB8AB3F5B06F03D9FB8AB3F5C06F13D331
:10452000FB8AB3F5C06F03D9FB8AB3F5D06F0BD309
:10453000FB8AB3F5DC6F03D3FB8AB3F5E06F03D3DB
:10454000FB8AB3F5E06F01D90F2393E0FB6A596C46
:10455000FB6AB3F84820FB6AB3F84A00FB6A1B6D9C
:104560000193BB6900930346F86AFFF70BFF7AE0FB
:10457000B868FFF76BFE78627B6A9BB2C3F30A03ED
:104580007B84FB6A1B6D9BB2C3F30A033B847B6A8B
:10459000DB43DB0FDBB2FB617A6A384B1340002B45
:1045A00034D1FB69002B07D0FB6A1B69002B03D0B9
:1045B0007A8C3B8C9A4229D1FB69002B28D07B8CCA
:1045C0007F2B23D97B8CB3F5807F03D97B8CB3F50C
:1045D000C07F1BD97B8CB3F5B06F03D97B8CB3F54F
:1045E000C06F13D37B8CB3F5C06F03D97B8CB3F54D
:1045F000D06F0BD37B8CB3F5DC6F03D37B8CB3F51F
:10460000E06F03D37B8CB3F5E06F01D90F2331E06A
:10461000FB6A596CFB6AB3F84800FB6AB3F84A407E
:10462000FB6ADB6C7A6A0192009323460246F86AC1
:10463000FFF7A8FE17E07B68012B01D00B2319E0E0
:10464000B868FFF7F5FD034687F82B3097F82B3055
:10465000002B03D097F92B30002B03DA0F2309E04E
:104660000E2307E000BF3B687A68B968F868FDF779
:104670001DFC034618463437BD4690BD00F8FF3F89
:1046800080B58CB002AFF860B9607A60FB70FB68EF
:10469000002B08D0BB68002B05D07B6B002B02D011
:1046A000FB6B002B02D14FF0FF33F5E0FB68BA68DB
:1046B0009A60FB68FA781A733B8E4FF47A7203FBA8
:1046C00002F2FB685A67FB6800221A757B68002BB0
:1046D00017D1FB78002B03D097F90330002B02DAB7
:1046E0004FF0FF33D8E0FB789BB203F5C063FB8447
:1046F000FB789BB203F5B063BB84FB6801221A61AF
:10470000A4E07868FFF7B0FD03467B847B8CB3F5AB
:10471000905F23D1FB78002B03D097F90330002B57
:1047200002DA4FF0FF33B7E0FB789BB203F5C063CA
:10473000FB84FB789BB203F5B063BB84FB6801226A
:104740001A61FA8C012301217868FFF7DCFDBA8C2D
:10475000012302217868FFF7D6FD77E07B8CB3F563
:10476000905F6FD97B8CB3F5945F6BD207F11D021C
:10477000012300217868FFF79CFD034687F821306C
:1047800007F11802012301217868FFF7A7FD03460E
:1047900087F8203007F11402012302217868FFF71F
:1047A0009DFD0346FB7797F92130002B0DD17B7FD0
:1047B000022B02D07B7F032B07D197F92030002BEF
:1047C00003D197F91F30002B08D07B6C002B02D04F
:1047D0007A8C7B6C1A606FF00B035DE0BB69002B79
:1047E00005DBBB699BB2C3F30A039BB200E0002365
:1047F000FB847B69002B05DB7B699BB2C3F30A0357
:104800009BB200E00023BB84FB68FA685A65FB6832
:10481000234A9A65FB68234ADA65FB6854331946D4
:104820007868FFF732FD0346BB7797F91E30002BFF
:104830000BD07B6C002B02D07A8C7B6C1A606FF0F3
:104840000B0329E04FF0FF3326E000BFFB68002296
:104850009A63FB687A6B5A64FB683A8FA3F8482026
:10486000FB68B7F84020A3F84A20FB680022DA640E
:10487000FB6800221A65FB68FA6B1A60FB8CBA8C25
:10488000B7F84000398F0192009303460A46796BCE
:10489000F868FFF777FD034618462837BD4680BD08
:1048A000FD1D00085D44000880B485B000AF78604D
:1048B0007B681B78FB73FB7B18461437BD465DF89D
:1048C000047B704780B485B000AF78607B681B685C
:1048D000FB60FB6818461437BD465DF8047B7047E3
:1048E00080B483B000AF78607B68002B02D07B6817
:1048F0001B8800E0002318460C37BD465DF8047B9A
:10490000704780B483B000AF786039607B68002B5B
:1049100001D1052303E07B683A689A6000231846BA
:104920000C37BD465DF8047B704780B586B002AF9A
:10493000F8607A603B600B46FB72F97A3B68009343
:1049400001237A68F868FDF779FC034618461037AA
:10495000BD4680BD80B586B002AFF8607A603B602E
:104960000B46FB72F97A3B68009304237A68F86877
:10497000FDF764FC034618461037BD4680BD80B580
:1049800082B000AF78607B689B7C0133DAB27B68D1
:104990009A747B689A7C7B685B7C9A4202D97B68BC
:1049A00001229A747B6800229A617B68DB68002B85
:1049B0000CBF01230023DBB21A467B68DA607B68F8
:1049C0009B6A7A68927C5A717B689A6C7B689B6A56
:1049D0001946104602F04AF8034618460837BD4605
:1049E00080BD80B487B000AF786039607B683B6180
:1049F0003B681B79FB7300237B613B695B7C002B6D
:104A00000CD1FB7B002B02D101237B6119E0FB7BE6
:104A100043F04003DAB23B691A7212E0FB7B012BD0
:104A200009D13B680533BB60BB681A783B699A744F
:104A300001237B6105E0FB7B63F07F03DAB23B6916
:104A40001A727B69002B0CD03B69DB68002B0CBF12
:104A500001230023DBB21A463B69DA603B6901227D
:104A60005A6000BF1C37BD465DF8047B70470000EC
:104A700090B58FB004AFF860B9607A603B60FB68B6
:104A8000002B0CD0FB685B7C002B08D1BB68002B93
:104A900005D07B68042B02D13B68002B01D1092390
:104AA000A3E0FB685B687B62B868FFF70BFF3862C6
:104AB0003B6A9BB2C3F30A03FB833B6A03F0804368
:104AC000002B14BF01230023DBB2BB613A6A494BC0
:104AD0001340002B33D1FB8B7F2B30D9FB8BB3F5ED
:104AE000807F03D9FB8BB3F5C07F28D9FB8BB3F54F
:104AF000B06F03D9FB8BB3F5C06F20D3FB8BB3F53D
:104B0000C06F03D9FB8BB3F5D06F18D3FB8BB3F514
:104B1000DC6F03D3FB8BB3F5E06F10D3FB8BB3F5E6
:104B2000E06F0CD87B6A5B6A002B0AD0BB69002B54
:104B300007D07B6AB3F84430FA8B9A4201D00F2336
:104B400053E07B6AB3F84430FA8B9A423AD07B6ADE
:104B5000D86A7B6A198EFA8B274B02937B6A019382
:104B60000023009340F2FF7301F05EFE0346FB75E5
:104B700097F91730002B01D0092336E07B6A986C37
:104B80007B6AB3F84C107B6A5B7C002B14BF01235B
:104B90000023DBB21C46FA8B002301930094002310
:104BA00001F09EFE02467B6A9A627B6A9B6A002B3A
:104BB00004D17B6A00225A62092316E07B6AFA8BD1
:104BC000A3F844207B6ABA695A62BB69002B05D0FE
:104BD0007B6A00229A747B6A00229A613B687A6839
:104BE000B968F868FDF762F9034618462C37BD46E8
:104BF00090BD00BF00F8FFBFE349000890B589B041
:104C000002AFF860B9607A603B60FB68002B0CD0A3
:104C1000FB685B7C002B08D1BB68002B05D07B6850
:104C2000012B02D13B68002B01D1092341E0FB6835
:104C30005B687B61B868FFF737FE0346FB74FB7C5B
:104C4000012B02D0FB7CF02B01D90F2331E07B69D3
:104C5000DB691B68002B01D017232AE07B69986C65
:104C60007B69B3F84C107B69B3F84420FB7C002BC4
:104C700014BF01230023DBB21C46002301930094E0
:104C8000002301F02DFE02467B699A627B699B6AD4
:104C9000002B04D17B6900225A62092309E07B6959
:104CA000FA7C5A743B687A68B968F868FDF7FEF8D0
:104CB000034618461C37BD4690BD000080B58CB039
:104CC00004AFF860B9607A603B60FB68002B0ED0DF
:104CD000BB68002B0BD07B68002B08D03B68002BF7
:104CE00005D0BB6B002B02D03B6B002B02D14FF0E9
:104CF000FF33FEE060220021F8680DF0D3F9802335
:104D0000BB6107F11802012300217868FFF722FE3A
:104D10000346FB7797F91F30002B0CD03B6C002B20
:104D200006D07868FFF7DCFD03461A463B6C1A6034
:104D30006FF00B03DDE0FB68FA685A63FB686F4AAB
:104D40009A63FB686E4ADA63FB6834331946786805
:104D5000FFF7D7FD0023042200213868FDF7D5FABC
:104D60000246FB68DA61FB68DB69002B0CD13B6C07
:104D7000002B06D03868FFF7B3FD03461A463B6C9C
:104D80001A606FF00B03B4E0002304220021B86A1C
:104D9000FDF7BBFA0246FB681A62BB6A002B10D013
:104DA000FB681B6A002B0CD13B6C002B06D0B86A49
:104DB000FFF796FD03461A463B6C1A606FF00B0333
:104DC00097E00023FB75FB6A002B33D007F1170235
:104DD00001230021F86AFFF7A8FD0346FB7797F946
:104DE0001F30002B0CD03B6C002B06D0F86AFFF76D
:104DF00077FD03461A463B6C1A606FF00B0378E0B0
:104E0000FB7D012B02D10223FB7504E0FB7DF02B1F
:104E100001D9F023FB75FB68FA681A65FB68374A0D
:104E20005A65FB68374A9A65FB6850331946F86A39
:104E3000FFF767FDFA7DFB685A74FB68BA681A6071
:104E4000BB6903F08043002B14BF01230023DBB2B6
:104E50001A46FB685A62BB699BB2C3F30A039AB253
:104E6000FB68A3F84420FB683A6BDA62FB68BA8EF1
:104E70001A86FB68BA6B9A64FB68BA8FA3F84C2059
:104E8000BB699BB2C3F30A039AB2B98E1E4B02935D
:104E9000FB6801930023009340F2FF73386B01F02D
:104EA000C3FC0346BB7797F91E30002B02D097F95D
:104EB0001E301EE0BB699BB2C3F30A039AB2FB7DAE
:104EC000002B14BF01230023DBB21846B98F002347
:104ED000019300900023B86B01F002FD0246FB68CD
:104EE0009A62FB689B6A002B02D14FF0FF3300E00F
:104EF000002318462037BD4680BD00BFFD1D0008B9
:104F0000714A0008FD4B0008E349000880B58AB0EB
:104F100002AFF860B9607A603B600023FB77BB6842
:104F2000002B00F08880FB689B697A6813447B61E2
:104F3000FB689B697A699A4202D9FB687A699A612F
:104F4000FB685B68002B07D0FB6800229A61012395
:104F5000FB77FB6800225A60FB68DB69002B03D0FB
:104F6000FB68DB691B6800E000233B613B69002BA9
:104F700031D0FB685B6A002B0AD0FB689B693A69F9
:104F80009A4228D80123FB77F868FFF7F8FC22E063
:104F9000FB681B7C012B1ED13B695B083A691344FB
:104FA000BB61BA693B699A4202D24FF0FF33BB61E1
:104FB000FB689B69BA699A420DD2FB681868FB6866
:104FC0009B6900934FF4014318220121FCF7B6FAC4
:104FD000FB6802221A74FB681B6A002B15D0FB6861
:104FE0001B6A1B68002B10D0FB689A69FB681B6A60
:104FF0001B689A4209D9FB685B69002B01D1022327
:10500000FB77FB6801225A6102E0FB6800225A61CB
:10501000FB681B7A002B1AD0FB681868FB681B7AA8
:10502000009348F2402319220121FCF787FAFB681C
:1050300000221A720BE0FB6800225A60FB68002213
:105040001A72FB6800229A74FB6800229A61FB7F47
:10505000012B0FD1FB681B7C022B08D1FB68186861
:1050600000230093002318220021FCF767FAFB6855
:1050700001221A74FB7F18462037BD4680BD80B4DC
:1050800085B000AF78607B681B68FB60FB681846E2
:105090001437BD465DF8047B704780B483B000AF21
:1050A00078607B68002B02D07B681B8800E00023BF
:1050B00018460C37BD465DF8047B704780B483B05A
:1050C00000AF786039607B68002B01D1052303E0D5
:1050D0007B683A689A60002318460C37BD465DF835
:1050E000047B704780B586B002AFF8607A603B60A1
:1050F0000B46FB72F97A3B68009304237A68F868E0
:10510000FDF79CF8034618461037BD4680BD80B5B4
:1051100086B000AF786039607B687B613B681B7943
:10512000FB743B680533FB60FB7C062B08D17B6975
:105130000622F96818460DF09CF87B6901229A61F5
:1051400000BF1837BD4680BD80B588B000AFF8609D
:10515000B9607A603B60FB68002B0CD0FB685B7C1D
:10516000002B08D1BB68002B05D07B68042B02D133
:105170003B68002B01D1092351E0FB685B68FB61B0
:10518000B868FFF77CFFB861BB699BB2C3F30A0341
:10519000FB82BA69244B1340002B26D1FB8A7F2B5C
:1051A00023D9FB8AB3F5807F03D9FB8AB3F5C07F8F
:1051B0001BD9FB8AB3F5B06F03D9FB8AB3F5C06F77
:1051C00013D3FB8AB3F5C06F03D9FB8AB3F5D06F55
:1051D0000BD3FB8AB3F5DC6F03D3FB8AB3F5E06F27
:1051E00003D3FB8AB3F5E06F01D90F2317E0BB6946
:1051F000DB0FDBB21A46FB691A61BB6903F080431F
:10520000002B14BF01230023DBB21A46FB695A614D
:105210003B687A68B968F868FCF748FE03461846A8
:105220002037BD4680BD00BF00F8FF3F80B58CB081
:1052300004AFF860B9607A607B80FB68002B05D012
:10524000BB68002B02D07B68002B02D14FF0FF33EC
:1052500061E02C220021F8680CF024FF07F1140211
:1052600001230021B868FFF73DFF0346FB7797F95C
:105270001F30002B0CD0BB6A002B06D0B868FFF79C
:105280000CFF03461A46BB6A1A606FF00B0342E03C
:10529000FB68FA68DA61FB68214A1A62FB68214AF6
:1052A0005A62FB681C331946B868FFF707FF7B6931
:1052B0009BB2C3F30A03BB837B69DB0FDBB21A46E5
:1052C000FB681A617B6903F08043002B14BF012344
:1052D0000023DBB21A46FB685A61FB6800229A6120
:1052E000FB681B69002B15D0BA8B79880E4B029393
:1052F000FB6801930023009340F2FF73786801F08C
:1053000093FA0346FB7697F91B30002B02D097F9EE
:105310001B3000E0002318462037BD4680BD00BF8B
:10532000FD1D0008495100080F51000880B485B0E8
:1053300000AFF860B9607A60FB68002B12D0BB68E0
:10534000002B0FD07B68012B0CD9FB680022DA60A0
:10535000FB6800229A60FB68BA681A60FB687A688A
:105360005A6000E000BF1437BD465DF8047B70470B
:1053700080B489B000AFF860B9607A603B60FB68C8
:10538000002B06D0FB681B68002B02D0BB68002BEB
:1053900001D100233EE0FB681A68FB689B68134458
:1053A000BB617B68FB612FE0FB689B6801337B611D
:1053B000FB68DB687A699A4229D0FB685B687A6986
:1053C0009A4203D1FB68DB68002B20D0BB681A78B7
:1053D000BB691A70FB685B687A699A4206D1FB6800
:1053E00000229A60FB681B68BB6107E0FB689B6852
:1053F0005A1CFB689A60BB690133BB61BB6801330F
:10540000BB60FB69013BFB61FB69002BCCD17A6877
:10541000FB69D31A18462437BD465DF8047B7047F4
:1054200080B489B000AFF860B9607A603B603B68D7
:10543000002B02D03B6800221A60FB68002B08D0CA
:10544000BB68002B05D0FB68DA68FB689B689A4252
:1054500001D1002336E0FB681A68FB68DB6813445F
:10546000BB617B68FB6125E0BB691B78FB75FB6852
:10547000DA68FB689B689A4220D0BB685A1CBA6005
:10548000FA7D1A70FB68DB685A1CFB68DA60FB68FF
:10549000DA68FB685B689A4206D1FB680022DA6032
:1054A000FB681B68BB6102E0BB690133BB61FB6940
:1054B000013BFB61FB69002BD6D100E000BF7A689D
:1054C000FB69D31A18462437BD465DF8047B704744
:1054D00080B584B000AF78600023FB737B68002B3D
:1054E00002D14FF0FF3306E00C22002178680CF067
:1054F000D9FD97F90F3018461037BD4680BD000022
:1055000080B590B000AF786039607B687B633B68A2
:105510001B7987F8333097F83330082B40F04C81F3
:105520007B6B5B6C002B40F047810023FB633B6887
:105530000533FB62FB6A1B7887F82B3097F82B301A
:10554000042B2CD1FB6A5B78FB77FB7F002B02D00E
:10555000012B20D02AE17B6B1B7C012B10D17B6BB4
:1055600093F84030FF2B0BD17B6BDB6B1B78FF2B51
:1055700006D07B6B97F82B2083F848200123FB6330
:105580007B6B00221A747B6B1433102200211846A7
:105590000CF088FD0AE17B6B01221A7406E17B6B3B
:1055A0001B7C002B40F0EE8097F82B30403B112BFA
:1055B00000F2F78001A252F823F000BF0556000860
:1055C000155600082556000835560008A357000850
:1055D000A3570008A3570008A3570008A3570008C3
:1055E000A3570008A3570008A3570008A3570008B3
:1055F000A3570008A3570008A3570008A3570008A3
:1056000091560008FB6A01331B68BB61BA697B6B6A
:105610005A61CBE0FB6A01331B687B617A697B6B63
:105620009A61C3E0FB6A01331B683B613A697B6B9B
:10563000DA61BBE0FB6A01331B68FB60FA687B6BD5
:105640001A627B6B5A687B6B9B699A4240F0AB8015
:105650007B6B9A687B6BDB699A4240F0A4807B6B22
:10566000DA687B6B1B6A9A4240F09D807B6B1A68FC
:105670007B6B5B699A4240F096807B6B01221A74C7
:105680007B6B97F82B2083F848200123FB638AE08B
:105690007B6BDB6B1B78FF2B40F087807B6B93F879
:1056A0004030FF2B40F08180FB6A5B7987F82A301D
:1056B000FB6A9B7987F82930FB6ADB7987F8283009
:1056C00097F82A301F2B03D997F82A30802B6DD1F9
:1056D00097F82930032B69D897F82830032B65D821
:1056E000FB6A01331B68BB60BB687B620023BB6342
:1056F00097F82A30802B0DD10123BB637B6B0022EE
:1057000083F834207B6B24331022002118460CF0E0
:10571000C9FC2CE07B6B93F8343097F829209A422F
:1057200025D197F82A304FF0FF3202FA03F33B629B
:1057300097F829207B6B53F822207B6A5A403B6AFA
:105740001340002B13D10123BB637B6B97F82820F8
:1057500083F8342097F82A30002B08D197F82820B6
:1057600097F829309A4202D27B6B01221A74BB6BE4
:10577000002B1AD07B6B97F82B2083F8482001234D
:10578000FB6312E07B6B49330822F96A18460CF080
:1057900070FD7B6B97F82B2083F848200123FB6377
:1057A00004E000BF02E000BF00E000BFFB6B002B85
:1057B00002D07B6B01225A6400BF4037BD4680BDDA
:1057C00080B58AB004AFF860B9607A603B600023AE
:1057D000FB75FB68002B18D07B68002B15D03B684D
:1057E000002B12D03B6A002B0FD0FB6A002B0CD091
:1057F0003B681B78002B04D03B681B785BB2002B06
:1058000006DA3B681B78FF2B02D04FF0FF3346E0EF
:1058100074220021F8680CF045FCFB681022B9687E
:1058200018460CF026FDFB6800221A74FB68002263
:1058300083F83420FB687A689A63FB683A68DA6315
:105840003B681A78FB6883F84020FB6800225A64A2
:105850003A8DB98C144B0293FB680193002300939B
:1058600040F2FF73386A00F0DFFF0346FB75FB6808
:10587000FA6ADA66BA8E398E002301930823009300
:105880000023F86A01F02CF80246FB681A67FB68EF
:105890001B6F002B01D1FF23FB7597F917301846BA
:1058A0001837BD4680BD00BF0155000880B483B0E5
:1058B00000AF78607B68002B03D07B6893F90030E1
:1058C00000E0002318460C37BD465DF8047B7047A6
:1058D00080B586B000AF786039600023FB6000239C
:1058E0007B6100233B61442101200BF079FF0346DB
:1058F000FB60FB68002B00F012813B6944333B6185
:10590000342101200BF06CFF03461A46FB681A6134
:10591000FB681B69002B00F002813B6934333B615B
:105920000823FB72302101200BF05AFF03461A4670
:10593000FB685A61FB685B69002B00F0F0803B69F3
:1059400030333B61FB7A102118460BF049FF0346C8
:105950001A46FB689A61FB689B69002B00F0DF80A8
:10596000FB7A1B013A6913443B61502101200BF083
:1059700037FF03461A46FB68DA61FB68DB69002BD8
:1059800000F0CD803B6950333B611123BB72BB7A81
:10599000012B12D9BB7A082118460BF021FF0346D0
:1059A0001A46FB681A62FB681B6A002B00F0B7807E
:1059B000BB7ADB003A6913443B61A82101200BF05C
:1059C0000FFF03461A46FB685A62FB685B6A002BAE
:1059D00000F0A5803B69A8333B61782101200BF0E2
:1059E000FFFE03461A46FB689A62FB689B6A002B1F
:1059F00000F095803B6978333B612C2101200BF04E
:105A0000EFFE03461A46FB68DA62FB68DB6A002B8E
:105A100000F085803B692C333B61602101200BF055
:105A2000DFFE03461A46FB681A63FB681B6B002BFC
:105A300075D03B6960333B614FF4BA7104200BF0C1
:105A4000CFFE03461A46FB685A63FB685B6B002B6C
:105A500065D03B6903F5BA633B614FF4B67104202E
:105A60000BF0BEFE03461A46FB689A63FB689B6B0D
:105A7000002B54D03B6903F5B6633B610C21012038
:105A80000BF0AEFE03461A46FB68DA63FB68DB6B7D
:105A9000002B44D03B690C333B61742101200BF097
:105AA0009FFE03461A46FB681A64FB681B6C002BBA
:105AB00035D03B6974333B61382101200BF090FEF7
:105AC00003461A46FB685A60FB685B68002B26D0C9
:105AD0003B6938333B610C2112200BF081FE0346F9
